{"abi":[{"type":"constructor","inputs":[{"name":"name_","type":"string","internalType":"string"},{"name":"symbol_","type":"string","internalType":"string"},{"name":"bridgeAddress","type":"address","internalType":"address"}],"stateMutability":"nonpayable"},{"type":"function","name":"BRIDGE_ROLE","inputs":[],"outputs":[{"name":"","type":"bytes32","internalType":"bytes32"}],"stateMutability":"view"},{"type":"function","name":"DEFAULT_ADMIN_ROLE","inputs":[],"outputs":[{"name":"","type":"bytes32","internalType":"bytes32"}],"stateMutability":"view"},{"type":"function","name":"allowance","inputs":[{"name":"owner","type":"address","internalType":"address"},{"name":"spender","type":"address","internalType":"address"}],"outputs":[{"name":"","type":"uint256","internalType":"uint256"}],"stateMutability":"view"},{"type":"function","name":"approve","inputs":[{"name":"spender","type":"address","internalType":"address"},{"name":"amount","type":"uint256","internalType":"uint256"}],"outputs":[{"name":"","type":"bool","internalType":"bool"}],"stateMutability":"nonpayable"},{"type":"function","name":"balanceOf","inputs":[{"name":"account","type":"address","internalType":"address"}],"outputs":[{"name":"","type":"uint256","internalType":"uint256"}],"stateMutability":"view"},{"type":"function","name":"burn","inputs":[{"name":"amount","type":"uint256","internalType":"uint256"}],"outputs":[],"stateMutability":"nonpayable"},{"type":"function","name":"burnFrom","inputs":[{"name":"from","type":"address","internalType":"address"},{"name":"amount","type":"uint256","internalType":"uint256"}],"outputs":[],"stateMutability":"nonpayable"},{"type":"function","name":"decimals","inputs":[],"outputs":[{"name":"","type":"uint8","internalType":"uint8"}],"stateMutability":"pure"},{"type":"function","name":"decreaseAllowance","inputs":[{"name":"spender","type":"address","internalType":"address"},{"name":"subtractedValue","type":"uint256","internalType":"uint256"}],"outputs":[{"name":"","type":"bool","internalType":"bool"}],"stateMutability":"nonpayable"},{"type":"function","name":"getRoleAdmin","inputs":[{"name":"role","type":"bytes32","internalType":"bytes32"}],"outputs":[{"name":"","type":"bytes32","internalType":"bytes32"}],"stateMutability":"view"},{"type":"function","name":"grantRole","inputs":[{"name":"role","type":"bytes32","internalType":"bytes32"},{"name":"account","type":"address","internalType":"address"}],"outputs":[],"stateMutability":"nonpayable"},{"type":"function","name":"hasRole","inputs":[{"name":"role","type":"bytes32","internalType":"bytes32"},{"name":"account","type":"address","internalType":"address"}],"outputs":[{"name":"","type":"bool","internalType":"bool"}],"stateMutability":"view"},{"type":"function","name":"increaseAllowance","inputs":[{"name":"spender","type":"address","internalType":"address"},{"name":"addedValue","type":"uint256","internalType":"uint256"}],"outputs":[{"name":"","type":"bool","internalType":"bool"}],"stateMutability":"nonpayable"},{"type":"function","name":"mint","inputs":[{"name":"to","type":"address","internalType":"address"},{"name":"amount","type":"uint256","internalType":"uint256"}],"outputs":[],"stateMutability":"nonpayable"},{"type":"function","name":"name","inputs":[],"outputs":[{"name":"","type":"string","internalType":"string"}],"stateMutability":"view"},{"type":"function","name":"renounceRole","inputs":[{"name":"role","type":"bytes32","internalType":"bytes32"},{"name":"account","type":"address","internalType":"address"}],"outputs":[],"stateMutability":"nonpayable"},{"type":"function","name":"revokeRole","inputs":[{"name":"role","type":"bytes32","internalType":"bytes32"},{"name":"account","type":"address","internalType":"address"}],"outputs":[],"stateMutability":"nonpayable"},{"type":"function","name":"supportsInterface","inputs":[{"name":"interfaceId","type":"bytes4","internalType":"bytes4"}],"outputs":[{"name":"","type":"bool","internalType":"bool"}],"stateMutability":"view"},{"type":"function","name":"symbol","inputs":[],"outputs":[{"name":"","type":"string","internalType":"string"}],"stateMutability":"view"},{"type":"function","name":"totalSupply","inputs":[],"outputs":[{"name":"","type":"uint256","internalType":"uint256"}],"stateMutability":"view"},{"type":"function","name":"transfer","inputs":[{"name":"to","type":"address","internalType":"address"},{"name":"amount","type":"uint256","internalType":"uint256"}],"outputs":[{"name":"","type":"bool","internalType":"bool"}],"stateMutability":"nonpayable"},{"type":"function","name":"transferFrom","inputs":[{"name":"from","type":"address","internalType":"address"},{"name":"to","type":"address","internalType":"address"},{"name":"amount","type":"uint256","internalType":"uint256"}],"outputs":[{"name":"","type":"bool","internalType":"bool"}],"stateMutability":"nonpayable"},{"type":"event","name":"Approval","inputs":[{"name":"owner","type":"address","indexed":true,"internalType":"address"},{"name":"spender","type":"address","indexed":true,"internalType":"address"},{"name":"value","type":"uint256","indexed":false,"internalType":"uint256"}],"anonymous":false},{"type":"event","name":"RoleAdminChanged","inputs":[{"name":"role","type":"bytes32","indexed":true,"internalType":"bytes32"},{"name":"previousAdminRole","type":"bytes32","indexed":true,"internalType":"bytes32"},{"name":"newAdminRole","type":"bytes32","indexed":true,"internalType":"bytes32"}],"anonymous":false},{"type":"event","name":"RoleGranted","inputs":[{"name":"role","type":"bytes32","indexed":true,"internalType":"bytes32"},{"name":"account","type":"address","indexed":true,"internalType":"address"},{"name":"sender","type":"address","indexed":true,"internalType":"address"}],"anonymous":false},{"type":"event","name":"RoleRevoked","inputs":[{"name":"role","type":"bytes32","indexed":true,"internalType":"bytes32"},{"name":"account","type":"address","indexed":true,"internalType":"address"},{"name":"sender","type":"address","indexed":true,"internalType":"address"}],"anonymous":false},{"type":"event","name":"Transfer","inputs":[{"name":"from","type":"address","indexed":true,"internalType":"address"},{"name":"to","type":"address","indexed":true,"internalType":"address"},{"name":"value","type":"uint256","indexed":false,"internalType":"uint256"}],"anonymous":false}],"bytecode":{"object":"0x608060405234801562000010575f80fd5b506040516200167d3803806200167d83398101604081905262000033916200025c565b828260036200004383826200036f565b5060046200005282826200036f565b5050506001600160a01b038116620000ba5760405162461bcd60e51b815260206004820152602160248201527f42726964676564546f6b656e3a207a65726f20627269646765206164647265736044820152607360f81b606482015260840160405180910390fd5b620000c65f33620000fb565b620000f27f52ba824bfabc2bcfcdf7f0edbb486ebb05e1836c90e78047efeb949990f72e5f82620000fb565b50505062000437565b5f8281526005602090815260408083206001600160a01b038516845290915290205460ff166200019a575f8281526005602090815260408083206001600160a01b03851684529091529020805460ff19166001179055620001593390565b6001600160a01b0316816001600160a01b0316837f2f8788117e7eff1d82e926ec794901d17c78024a50270940304540a733656f0d60405160405180910390a45b5050565b634e487b7160e01b5f52604160045260245ffd5b5f82601f830112620001c2575f80fd5b81516001600160401b0380821115620001df57620001df6200019e565b604051601f8301601f19908116603f011681019082821181831017156200020a576200020a6200019e565b8160405283815260209250868385880101111562000226575f80fd5b5f91505b838210156200024957858201830151818301840152908201906200022a565b5f93810190920192909252949350505050565b5f805f606084860312156200026f575f80fd5b83516001600160401b038082111562000286575f80fd5b6200029487838801620001b2565b94506020860151915080821115620002aa575f80fd5b50620002b986828701620001b2565b604086015190935090506001600160a01b0381168114620002d8575f80fd5b809150509250925092565b600181811c90821680620002f857607f821691505b6020821081036200031757634e487b7160e01b5f52602260045260245ffd5b50919050565b601f8211156200036a575f81815260208120601f850160051c81016020861015620003455750805b601f850160051c820191505b81811015620003665782815560010162000351565b5050505b505050565b81516001600160401b038111156200038b576200038b6200019e565b620003a3816200039c8454620002e3565b846200031d565b602080601f831160018114620003d9575f8415620003c15750858301515b5f19600386901b1c1916600185901b17855562000366565b5f85815260208120601f198616915b828110156200040957888601518255948401946001909101908401620003e8565b50858210156200042757878501515f19600388901b60f8161c191681555b5050505050600190811b01905550565b61123880620004455f395ff3fe608060405234801561000f575f80fd5b506004361061013d575f3560e01c806342966c68116100b4578063a217fddf11610079578063a217fddf1461029e578063a457c2d7146102a5578063a9059cbb146102b8578063b5bfddea146102cb578063d547741f146102f2578063dd62ed3e14610305575f80fd5b806342966c681461023557806370a082311461024857806379cc67901461027057806391d148541461028357806395d89b4114610296575f80fd5b8063248a9ca311610105578063248a9ca3146101b65780632f2ff15d146101d8578063313ce567146101ed57806336568abe146101fc578063395093511461020f57806340c10f1914610222575f80fd5b806301ffc9a71461014157806306fdde0314610169578063095ea7b31461017e57806318160ddd1461019157806323b872dd146101a3575b5f80fd5b61015461014f366004610f62565b610318565b60405190151581526020015b60405180910390f35b610171610328565b6040516101609190610fab565b61015461018c366004610ff8565b6103b8565b6002545b604051908152602001610160565b6101546101b1366004611020565b6103cf565b6101956101c4366004611059565b5f9081526005602052604090206001015490565b6101eb6101e6366004611070565b6103f2565b005b60405160128152602001610160565b6101eb61020a366004611070565b61041b565b61015461021d366004610ff8565b61049e565b6101eb610230366004610ff8565b6104bf565b6101eb610243366004611059565b6105a3565b61019561025636600461109a565b6001600160a01b03165f9081526020819052604090205490565b6101eb61027e366004610ff8565b6105b0565b610154610291366004611070565b6105e4565b61017161060e565b6101955f81565b6101546102b3366004610ff8565b61061d565b6101546102c6366004610ff8565b610697565b6101957f52ba824bfabc2bcfcdf7f0edbb486ebb05e1836c90e78047efeb949990f72e5f81565b6101eb610300366004611070565b6106a4565b6101956103133660046110b3565b6106c8565b5f610322826106f2565b92915050565b606060038054610337906110db565b80601f0160208091040260200160405190810160405280929190818152602001828054610363906110db565b80156103ae5780601f10610385576101008083540402835291602001916103ae565b820191905f5260205f20905b81548152906001019060200180831161039157829003601f168201915b5050505050905090565b5f336103c5818585610726565b5060019392505050565b5f336103dc858285610849565b6103e78585856108c1565b506001949350505050565b5f8281526005602052604090206001015461040c81610a63565b6104168383610a6d565b505050565b6001600160a01b03811633146104905760405162461bcd60e51b815260206004820152602f60248201527f416363657373436f6e74726f6c3a2063616e206f6e6c792072656e6f756e636560448201526e103937b632b9903337b91039b2b63360891b60648201526084015b60405180910390fd5b61049a8282610af2565b5050565b5f336103c58185856104b083836106c8565b6104ba9190611127565b610726565b7f52ba824bfabc2bcfcdf7f0edbb486ebb05e1836c90e78047efeb949990f72e5f6104e981610a63565b6001600160a01b03831661054a5760405162461bcd60e51b815260206004820152602260248201527f42726964676564546f6b656e3a206d696e7420746f207a65726f206164647265604482015261737360f01b6064820152608401610487565b5f82116105995760405162461bcd60e51b815260206004820152601960248201527f42726964676564546f6b656e3a207a65726f20616d6f756e74000000000000006044820152606401610487565b6104168383610b58565b6105ad3382610c15565b50565b7f52ba824bfabc2bcfcdf7f0edbb486ebb05e1836c90e78047efeb949990f72e5f6105da81610a63565b6104168383610d45565b5f9182526005602090815260408084206001600160a01b0393909316845291905290205460ff1690565b606060048054610337906110db565b5f338161062a82866106c8565b90508381101561068a5760405162461bcd60e51b815260206004820152602560248201527f45524332303a2064656372656173656420616c6c6f77616e63652062656c6f77604482015264207a65726f60d81b6064820152608401610487565b6103e78286868403610726565b5f336103c58185856108c1565b5f828152600560205260409020600101546106be81610a63565b6104168383610af2565b6001600160a01b039182165f90815260016020908152604080832093909416825291909152205490565b5f6001600160e01b03198216637965db0b60e01b148061032257506301ffc9a760e01b6001600160e01b0319831614610322565b6001600160a01b0383166107885760405162461bcd60e51b8152602060048201526024808201527f45524332303a20617070726f76652066726f6d20746865207a65726f206164646044820152637265737360e01b6064820152608401610487565b6001600160a01b0382166107e95760405162461bcd60e51b815260206004820152602260248201527f45524332303a20617070726f766520746f20746865207a65726f206164647265604482015261737360f01b6064820152608401610487565b6001600160a01b038381165f8181526001602090815260408083209487168084529482529182902085905590518481527f8c5be1e5ebec7d5bd14f71427d1e84f3dd0314c0f7b2291e5b200ac8c7c3b925910160405180910390a3505050565b5f61085484846106c8565b90505f1981146108bb57818110156108ae5760405162461bcd60e51b815260206004820152601d60248201527f45524332303a20696e73756666696369656e7420616c6c6f77616e63650000006044820152606401610487565b6108bb8484848403610726565b50505050565b6001600160a01b0383166109255760405162461bcd60e51b815260206004820152602560248201527f45524332303a207472616e736665722066726f6d20746865207a65726f206164604482015264647265737360d81b6064820152608401610487565b6001600160a01b0382166109875760405162461bcd60e51b815260206004820152602360248201527f45524332303a207472616e7366657220746f20746865207a65726f206164647260448201526265737360e81b6064820152608401610487565b6001600160a01b0383165f90815260208190526040902054818110156109fe5760405162461bcd60e51b815260206004820152602660248201527f45524332303a207472616e7366657220616d6f756e7420657863656564732062604482015265616c616e636560d01b6064820152608401610487565b6001600160a01b038481165f81815260208181526040808320878703905593871680835291849020805487019055925185815290927fddf252ad1be2c89b69c2b068fc378daa952ba7f163c4a11628f55a4df523b3ef910160405180910390a36108bb565b6105ad8133610d5a565b610a7782826105e4565b61049a575f8281526005602090815260408083206001600160a01b03851684529091529020805460ff19166001179055610aae3390565b6001600160a01b0316816001600160a01b0316837f2f8788117e7eff1d82e926ec794901d17c78024a50270940304540a733656f0d60405160405180910390a45050565b610afc82826105e4565b1561049a575f8281526005602090815260408083206001600160a01b0385168085529252808320805460ff1916905551339285917ff6391f5c32d9c69d2a47ea670b442974b53935d1edc7fd64eb21e047a839171b9190a45050565b6001600160a01b038216610bae5760405162461bcd60e51b815260206004820152601f60248201527f45524332303a206d696e7420746f20746865207a65726f2061646472657373006044820152606401610487565b8060025f828254610bbf9190611127565b90915550506001600160a01b0382165f81815260208181526040808320805486019055518481527fddf252ad1be2c89b69c2b068fc378daa952ba7f163c4a11628f55a4df523b3ef910160405180910390a35050565b6001600160a01b038216610c755760405162461bcd60e51b815260206004820152602160248201527f45524332303a206275726e2066726f6d20746865207a65726f206164647265736044820152607360f81b6064820152608401610487565b6001600160a01b0382165f9081526020819052604090205481811015610ce85760405162461bcd60e51b815260206004820152602260248201527f45524332303a206275726e20616d6f756e7420657863656564732062616c616e604482015261636560f01b6064820152608401610487565b6001600160a01b0383165f818152602081815260408083208686039055600280548790039055518581529192917fddf252ad1be2c89b69c2b068fc378daa952ba7f163c4a11628f55a4df523b3ef910160405180910390a3505050565b610d50823383610849565b61049a8282610c15565b610d6482826105e4565b61049a57610d7181610db3565b610d7c836020610dc5565b604051602001610d8d92919061113a565b60408051601f198184030181529082905262461bcd60e51b825261048791600401610fab565b60606103226001600160a01b03831660145b60605f610dd38360026111ae565b610dde906002611127565b67ffffffffffffffff811115610df657610df66111c5565b6040519080825280601f01601f191660200182016040528015610e20576020820181803683370190505b509050600360fc1b815f81518110610e3a57610e3a6111d9565b60200101906001600160f81b03191690815f1a905350600f60fb1b81600181518110610e6857610e686111d9565b60200101906001600160f81b03191690815f1a9053505f610e8a8460026111ae565b610e95906001611127565b90505b6001811115610f0c576f181899199a1a9b1b9c1cb0b131b232b360811b85600f1660108110610ec957610ec96111d9565b1a60f81b828281518110610edf57610edf6111d9565b60200101906001600160f81b03191690815f1a90535060049490941c93610f05816111ed565b9050610e98565b508315610f5b5760405162461bcd60e51b815260206004820181905260248201527f537472696e67733a20686578206c656e67746820696e73756666696369656e746044820152606401610487565b9392505050565b5f60208284031215610f72575f80fd5b81356001600160e01b031981168114610f5b575f80fd5b5f5b83811015610fa3578181015183820152602001610f8b565b50505f910152565b602081525f8251806020840152610fc9816040850160208701610f89565b601f01601f19169190910160400192915050565b80356001600160a01b0381168114610ff3575f80fd5b919050565b5f8060408385031215611009575f80fd5b61101283610fdd565b946020939093013593505050565b5f805f60608486031215611032575f80fd5b61103b84610fdd565b925061104960208501610fdd565b9150604084013590509250925092565b5f60208284031215611069575f80fd5b5035919050565b5f8060408385031215611081575f80fd5b8235915061109160208401610fdd565b90509250929050565b5f602082840312156110aa575f80fd5b610f5b82610fdd565b5f80604083850312156110c4575f80fd5b6110cd83610fdd565b915061109160208401610fdd565b600181811c908216806110ef57607f821691505b60208210810361110d57634e487b7160e01b5f52602260045260245ffd5b50919050565b634e487b7160e01b5f52601160045260245ffd5b8082018082111561032257610322611113565b7f416363657373436f6e74726f6c3a206163636f756e742000000000000000000081525f8351611171816017850160208801610f89565b7001034b99036b4b9b9b4b733903937b6329607d1b60179184019182015283516111a2816028840160208801610f89565b01602801949350505050565b808202811582820484141761032257610322611113565b634e487b7160e01b5f52604160045260245ffd5b634e487b7160e01b5f52603260045260245ffd5b5f816111fb576111fb611113565b505f19019056fea26469706673582212204f76ab8e8564d583a1dc4d3e6c1838b4b74bce00a9fd73b2b8f9cf3c51da456d64736f6c63430008140033","linkReferences":{}},"methodIdentifiers":{"BRIDGE_ROLE()":"b5bfddea","DEFAULT_ADMIN_ROLE()":"a217fddf","allowance(address,address)":"dd62ed3e","approve(address,uint256)":"095ea7b3","balanceOf(address)":"70a08231","burn(uint256)":"42966c68","burnFrom(address,uint256)":"79cc6790","decimals()":"313ce567","decreaseAllowance(address,uint256)":"a457c2d7","getRoleAdmin(bytes32)":"248a9ca3","grantRole(bytes32,address)":"2f2ff15d","hasRole(bytes32,address)":"91d14854","increaseAllowance(address,uint256)":"39509351","mint(address,uint256)":"40c10f19","name()":"06fdde03","renounceRole(bytes32,address)":"36568abe","revokeRole(bytes32,address)":"d547741f","supportsInterface(bytes4)":"01ffc9a7","symbol()":"95d89b41","totalSupply()":"18160ddd","transfer(address,uint256)":"a9059cbb","transferFrom(address,address,uint256)":"23b872dd"},"id":2}