{"abi":[{"type":"constructor","inputs":[{"name":"alpha1","type":"tuple","internalType":"struct Groth16Verifier.G1Point","components":[{"name":"X","type":"uint256","internalType":"uint256"},{"name":"Y","type":"uint256","internalType":"uint256"}]},{"name":"beta2","type":"tuple","internalType":"struct Groth16Verifier.G2Point","components":[{"name":"X","type":"uint256[2]","internalType":"uint256[2]"},{"name":"Y","type":"uint256[2]","internalType":"uint256[2]"}]},{"name":"gamma2","type":"tuple","internalType":"struct Groth16Verifier.G2Point","components":[{"name":"X","type":"uint256[2]","internalType":"uint256[2]"},{"name":"Y","type":"uint256[2]","internalType":"uint256[2]"}]},{"name":"delta2","type":"tuple","internalType":"struct Groth16Verifier.G2Point","components":[{"name":"X","type":"uint256[2]","internalType":"uint256[2]"},{"name":"Y","type":"uint256[2]","internalType":"uint256[2]"}]},{"name":"ic","type":"tuple[]","internalType":"struct Groth16Verifier.G1Point[]","components":[{"name":"X","type":"uint256","internalType":"uint256"},{"name":"Y","type":"uint256","internalType":"uint256"}]}],"stateMutability":"nonpayable"},{"type":"function","name":"getInputCount","inputs":[],"outputs":[{"name":"","type":"uint256","internalType":"uint256"}],"stateMutability":"view"},{"type":"function","name":"verify","inputs":[{"name":"a","type":"uint256[2]","internalType":"uint256[2]"},{"name":"b","type":"uint256[2][2]","internalType":"uint256[2][2]"},{"name":"c","type":"uint256[2]","internalType":"uint256[2]"},{"name":"input","type":"uint256[]","internalType":"uint256[]"}],"outputs":[{"name":"","type":"bool","internalType":"bool"}],"stateMutability":"view"},{"type":"function","name":"verifyProof","inputs":[{"name":"proof","type":"bytes","internalType":"bytes"},{"name":"publicInputs","type":"bytes32[]","internalType":"bytes32[]"}],"outputs":[{"name":"","type":"bool","internalType":"bool"}],"stateMutability":"view"}],"bytecode":{"object":"0x608060405234801562000010575f80fd5b506040516200114038038062001140833981016040819052620000339162000331565b6002815110156200008a5760405162461bcd60e51b815260206004820152601f60248201527f47726f746831363a204943206c656e677468206d757374206265203e3d203200604482015260640160405180910390fd5b84515f55602085015160015583518490600290620000ab908290816200019d565b506020820151620000c390600280840191906200019d565b50508351849150600690620000dc90829060026200019d565b506020820151620000f490600280840191906200019d565b50508251839150600a906200010d90829060026200019d565b5060208201516200012590600280840191906200019d565b509050505f5b815181101562000191575f600e018282815181106200014e576200014e6200043e565b6020908102919091018101518254600181810185555f94855293839020825160029092020190815591015191015580620001888162000452565b9150506200012b565b50505050505062000477565b8260028101928215620001ce579160200282015b82811115620001ce578251825591602001919060010190620001b1565b50620001dc929150620001e0565b5090565b5b80821115620001dc575f8155600101620001e1565b634e487b7160e01b5f52604160045260245ffd5b604080519081016001600160401b03811182821017156200022f576200022f620001f6565b60405290565b604051601f8201601f191681016001600160401b0381118282101715620002605762000260620001f6565b604052919050565b5f6040828403121562000279575f80fd5b620002836200020a565b9050815181526020820151602082015292915050565b5f82601f830112620002a9575f80fd5b620002b36200020a565b806040840185811115620002c5575f80fd5b845b81811015620002e1578051845260209384019301620002c7565b509095945050505050565b5f60808284031215620002fd575f80fd5b620003076200020a565b905062000315838362000299565b815262000326836040840162000299565b602082015292915050565b5f805f805f6101e0868803121562000347575f80fd5b62000353878762000268565b945060406200036588828901620002ec565b9450620003768860c08901620002ec565b935062000388886101408901620002ec565b6101c08801519093506001600160401b0380821115620003a6575f80fd5b818901915089601f830112620003ba575f80fd5b8151602082821115620003d157620003d1620001f6565b620003e1818360051b0162000235565b828152818101935060069290921b84018101918c83111562000401575f80fd5b938101935b828510156200042b576200041b8d8662000268565b8452938501939281019262000406565b8096505050505050509295509295909350565b634e487b7160e01b5f52603260045260245ffd5b5f600182016200047057634e487b7160e01b5f52601160045260245ffd5b5060010190565b610cbb80620004855f395ff3fe608060405234801561000f575f80fd5b506004361061003f575f3560e01c80632612907c14610043578063bbcb7c741461006b578063ddb74b0a1461007e575b5f80fd5b610056610051366004610a24565b610094565b60405190151581526020015b60405180910390f35b610056610079366004610afc565b610493565b61008661055e565b604051908152602001610062565b600e5481515f91906100a7906001610bca565b146100f95760405162461bcd60e51b815260206004820152601e60248201527f47726f746831363a20696e707574206c656e677468206d69736d61746368000060448201526064015b60405180910390fd5b604080518082019091525f80825260208201819052600e80546101549284929161012557610125610be3565b905f5260205f2090600202016040518060400160405290815f8201548152602001600182015481525050610574565b90505f5b8351811015610279577f30644e72e131a029b85045b68181585d97816a916871ca8d3c208c16d87cfd4784828151811061019457610194610be3565b6020026020010151106101f35760405162461bcd60e51b815260206004820152602160248201527f47726f746831363a20696e7075742065786365656473206669656c642073697a6044820152606560f81b60648201526084016100f0565b61026582610260600e610207856001610bca565b8154811061021757610217610be3565b905f5260205f2090600202016040518060400160405290815f820154815260200160018201548152505087858151811061025357610253610be3565b602002602001015161060e565b610574565b91508061027181610bf7565b915050610158565b506104896102c66040518060400160405280895f6002811061029d5761029d610be3565b60200201518152602001896001600281106102ba576102ba610be3565b60200201519052610694565b604080518082018252885181526020808a015181830152825180840184525f5481526001549181019190915282516080810180855292939192909160029183918201908390819081845b81548152602001906001019080831161031057505050918352505060408051808201918290526020909201919060028481019182845b81548152602001906001019080831161034657505050919092525050604080516080810180835289935090916006918391820190839060029082845b81548152602001906001019080831161038257505050918352505060408051808201918290526020909201919060028481019182845b8154815260200190600101908083116103b85750505050508152505060405180604001604052808c5f600281106103f1576103f1610be3565b602002015181526020018c60016002811061040e5761040e610be3565b6020020151905260408051608081018083529091600a918391820190839060029082845b81548152602001906001019080831161043257505050918352505060408051808201918290526020909201919060028481019182845b81548152602001906001019080831161046857505050505081525050610730565b9695505050505050565b5f8080806104a387890189610c0f565b919450925090505f8567ffffffffffffffff8111156104c4576104c461091d565b6040519080825280602002602001820160405280156104ed578160200160208202803683370190505b5090505f5b868110156105445787878281811061050c5761050c610be3565b905060200201355f1c82828151811061052757610527610be3565b60209081029190910101528061053c81610bf7565b9150506104f2565b5061055184848484610094565b9998505050505050505050565b600e545f9061056f90600190610c53565b905090565b604080518082019091525f808252602082015261058f6108a4565b835181526020808501518183015283516040808401919091529084015160608301525f908360808460066107d05a03fa9050806106065760405162461bcd60e51b815260206004820152601560248201527411dc9bdd1a0c4d8e881958d059190819985a5b1959605a1b60448201526064016100f0565b505092915050565b604080518082019091525f80825260208201526106296108c2565b835181526020808501519082015260408082018490525f908360608460076107d05a03fa9050806106065760405162461bcd60e51b815260206004820152601560248201527411dc9bdd1a0c4d8e881958d35d5b0819985a5b1959605a1b60448201526064016100f0565b604080518082019091525f808252602082015281517f30644e72e131a029b85045b68181585d2833e84879b9709143e1f593f0000001901580156106da57506020830151155b156106f9575050604080518082019091525f8082526020820152919050565b6040518060400160405280845f0151815260200182856020015161071d9190610c66565b6107279084610c53565b90529392505050565b5f6107396108e0565b895181526020808b01518183015289518101516040830152895151606083015289810180518201516080840152515160a0830152885160c08301528881015160e08301528751810151610100830152875151610120830152878101805182015161014084015251516101608301528651610180830152868101516101a083015285518101516101c08301528551516101e08301528581018051820151610200840152515161022083015284516102408301528481015161026083015283518101516102808301528351516102a08301528381018051909101516102c083015251516102e08201526108286108ff565b5f6020826103008560086107d05a03fa9050806108925760405162461bcd60e51b815260206004820152602260248201527f47726f746831363a2070616972696e6720707265636f6d70696c65206661696c604482015261195960f21b60648201526084016100f0565b505115159a9950505050505050505050565b60405180608001604052806004906020820280368337509192915050565b60405180606001604052806003906020820280368337509192915050565b6040518061030001604052806018906020820280368337509192915050565b60405180602001604052806001906020820280368337509192915050565b634e487b7160e01b5f52604160045260245ffd5b6040805190810167ffffffffffffffff811182821017156109545761095461091d565b60405290565b604051601f8201601f1916810167ffffffffffffffff811182821017156109835761098361091d565b604052919050565b5f82601f83011261099a575f80fd5b6109a2610931565b8060408401858111156109b3575f80fd5b845b818110156109cd5780358452602093840193016109b5565b509095945050505050565b5f82601f8301126109e7575f80fd5b6109ef610931565b806080840185811115610a00575f80fd5b845b818110156109cd57610a14878261098b565b8452602090930192604001610a02565b5f805f806101208587031215610a38575f80fd5b610a42868661098b565b9350610a5186604087016109d8565b9250610a608660c0870161098b565b915061010085013567ffffffffffffffff80821115610a7d575f80fd5b818701915087601f830112610a90575f80fd5b8135602082821115610aa457610aa461091d565b8160051b9250610ab581840161095a565b828152928401810192818101908b851115610ace575f80fd5b948201945b84861015610aec57853582529482019490820190610ad3565b989b979a50959850505050505050565b5f805f8060408587031215610b0f575f80fd5b843567ffffffffffffffff80821115610b26575f80fd5b818701915087601f830112610b39575f80fd5b813581811115610b47575f80fd5b886020828501011115610b58575f80fd5b602092830196509450908601359080821115610b72575f80fd5b818701915087601f830112610b85575f80fd5b813581811115610b93575f80fd5b8860208260051b8501011115610ba7575f80fd5b95989497505060200194505050565b634e487b7160e01b5f52601160045260245ffd5b80820180821115610bdd57610bdd610bb6565b92915050565b634e487b7160e01b5f52603260045260245ffd5b5f60018201610c0857610c08610bb6565b5060010190565b5f805f6101008486031215610c22575f80fd5b610c2c858561098b565b9250610c3b85604086016109d8565b9150610c4a8560c0860161098b565b90509250925092565b81810381811115610bdd57610bdd610bb6565b5f82610c8057634e487b7160e01b5f52601260045260245ffd5b50069056fea264697066735822122092b03c5cb5c2bceba573672f3979e675d58ced8c2be36a468dc92944c93e31b664736f6c63430008140033","linkReferences":{}},"methodIdentifiers":{"getInputCount()":"ddb74b0a","verify(uint256[2],uint256[2][2],uint256[2],uint256[])":"2612907c","verifyProof(bytes,bytes32[])":"bbcb7c74"},"id":3}