{"abi":[{"type":"constructor","inputs":[{"name":"initialAdmin","type":"address","internalType":"address"},{"name":"guardian","type":"address","internalType":"address"},{"name":"dailyLimit_","type":"uint256","internalType":"uint256"},{"name":"perTxLimit_","type":"uint256","internalType":"uint256"},{"name":"verifierAddress","type":"address","internalType":"address"}],"stateMutability":"nonpayable"},{"type":"receive","stateMutability":"payable"},{"type":"function","name":"DEFAULT_ADMIN_ROLE","inputs":[],"outputs":[{"name":"","type":"bytes32","internalType":"bytes32"}],"stateMutability":"view"},{"type":"function","name":"GUARDIAN_ROLE","inputs":[],"outputs":[{"name":"","type":"bytes32","internalType":"bytes32"}],"stateMutability":"view"},{"type":"function","name":"dailyLimit","inputs":[],"outputs":[{"name":"","type":"uint256","internalType":"uint256"}],"stateMutability":"view"},{"type":"function","name":"dailyVolume","inputs":[],"outputs":[{"name":"","type":"uint256","internalType":"uint256"}],"stateMutability":"view"},{"type":"function","name":"deposit","inputs":[{"name":"ringsDID","type":"bytes32","internalType":"bytes32"}],"outputs":[],"stateMutability":"payable"},{"type":"function","name":"depositNonce","inputs":[],"outputs":[{"name":"","type":"uint256","internalType":"uint256"}],"stateMutability":"view"},{"type":"function","name":"depositToken","inputs":[{"name":"token","type":"address","internalType":"address"},{"name":"amount","type":"uint256","internalType":"uint256"},{"name":"ringsDID","type":"bytes32","internalType":"bytes32"}],"outputs":[],"stateMutability":"nonpayable"},{"type":"function","name":"deposits","inputs":[{"name":"","type":"uint256","internalType":"uint256"}],"outputs":[{"name":"depositor","type":"address","internalType":"address"},{"name":"ringsDID","type":"bytes32","internalType":"bytes32"},{"name":"amount","type":"uint256","internalType":"uint256"},{"name":"token","type":"address","internalType":"address"},{"name":"timestamp","type":"uint256","internalType":"uint256"},{"name":"nonce","type":"uint256","internalType":"uint256"}],"stateMutability":"view"},{"type":"function","name":"emergencyPause","inputs":[],"outputs":[],"stateMutability":"nonpayable"},{"type":"function","name":"getDepositInfo","inputs":[{"name":"nonce_","type":"uint256","internalType":"uint256"}],"outputs":[{"name":"info","type":"tuple","internalType":"struct RingsBridge.DepositInfo","components":[{"name":"depositor","type":"address","internalType":"address"},{"name":"ringsDID","type":"bytes32","internalType":"bytes32"},{"name":"amount","type":"uint256","internalType":"uint256"},{"name":"token","type":"address","internalType":"address"},{"name":"timestamp","type":"uint256","internalType":"uint256"},{"name":"nonce","type":"uint256","internalType":"uint256"}]}],"stateMutability":"view"},{"type":"function","name":"getRemainingDailyLimit","inputs":[],"outputs":[{"name":"","type":"uint256","internalType":"uint256"}],"stateMutability":"view"},{"type":"function","name":"getRoleAdmin","inputs":[{"name":"role","type":"bytes32","internalType":"bytes32"}],"outputs":[{"name":"","type":"bytes32","internalType":"bytes32"}],"stateMutability":"view"},{"type":"function","name":"getWithdrawalInfo","inputs":[{"name":"nonce_","type":"uint256","internalType":"uint256"}],"outputs":[{"name":"info","type":"tuple","internalType":"struct RingsBridge.WithdrawalInfo","components":[{"name":"recipient","type":"address","internalType":"address"},{"name":"ringsDID","type":"bytes32","internalType":"bytes32"},{"name":"amount","type":"uint256","internalType":"uint256"},{"name":"token","type":"address","internalType":"address"},{"name":"timestamp","type":"uint256","internalType":"uint256"},{"name":"nonce","type":"uint256","internalType":"uint256"}]}],"stateMutability":"view"},{"type":"function","name":"grantRole","inputs":[{"name":"role","type":"bytes32","internalType":"bytes32"},{"name":"account","type":"address","internalType":"address"}],"outputs":[],"stateMutability":"nonpayable"},{"type":"function","name":"hasRole","inputs":[{"name":"role","type":"bytes32","internalType":"bytes32"},{"name":"account","type":"address","internalType":"address"}],"outputs":[{"name":"","type":"bool","internalType":"bool"}],"stateMutability":"view"},{"type":"function","name":"isDepositProcessed","inputs":[{"name":"nonce_","type":"uint256","internalType":"uint256"}],"outputs":[{"name":"","type":"bool","internalType":"bool"}],"stateMutability":"view"},{"type":"function","name":"lastResetTimestamp","inputs":[],"outputs":[{"name":"","type":"uint256","internalType":"uint256"}],"stateMutability":"view"},{"type":"function","name":"latestVerifiedSlot","inputs":[],"outputs":[{"name":"","type":"uint64","internalType":"uint64"}],"stateMutability":"view"},{"type":"function","name":"paused","inputs":[],"outputs":[{"name":"","type":"bool","internalType":"bool"}],"stateMutability":"view"},{"type":"function","name":"perTxLimit","inputs":[],"outputs":[{"name":"","type":"uint256","internalType":"uint256"}],"stateMutability":"view"},{"type":"function","name":"processedWithdrawals","inputs":[{"name":"","type":"uint256","internalType":"uint256"}],"outputs":[{"name":"","type":"bool","internalType":"bool"}],"stateMutability":"view"},{"type":"function","name":"renounceRole","inputs":[{"name":"role","type":"bytes32","internalType":"bytes32"},{"name":"account","type":"address","internalType":"address"}],"outputs":[],"stateMutability":"nonpayable"},{"type":"function","name":"revokeRole","inputs":[{"name":"role","type":"bytes32","internalType":"bytes32"},{"name":"account","type":"address","internalType":"address"}],"outputs":[],"stateMutability":"nonpayable"},{"type":"function","name":"supportsInterface","inputs":[{"name":"interfaceId","type":"bytes4","internalType":"bytes4"}],"outputs":[{"name":"","type":"bool","internalType":"bool"}],"stateMutability":"view"},{"type":"function","name":"syncCommitteeRoot","inputs":[],"outputs":[{"name":"","type":"bytes32","internalType":"bytes32"}],"stateMutability":"view"},{"type":"function","name":"unpause","inputs":[],"outputs":[],"stateMutability":"nonpayable"},{"type":"function","name":"updateRateLimits","inputs":[{"name":"newDailyLimit","type":"uint256","internalType":"uint256"},{"name":"newPerTxLimit","type":"uint256","internalType":"uint256"}],"outputs":[],"stateMutability":"nonpayable"},{"type":"function","name":"updateSyncCommittee","inputs":[{"name":"newRoot","type":"bytes32","internalType":"bytes32"},{"name":"slot","type":"uint64","internalType":"uint64"},{"name":"proof","type":"bytes","internalType":"bytes"},{"name":"publicInputs","type":"bytes32[]","internalType":"bytes32[]"}],"outputs":[],"stateMutability":"nonpayable"},{"type":"function","name":"verifier","inputs":[],"outputs":[{"name":"","type":"address","internalType":"contract IGroth16Verifier"}],"stateMutability":"view"},{"type":"function","name":"withdraw","inputs":[{"name":"recipient","type":"address","internalType":"address payable"},{"name":"ringsDID","type":"bytes32","internalType":"bytes32"},{"name":"amount","type":"uint256","internalType":"uint256"},{"name":"nonce_","type":"uint256","internalType":"uint256"},{"name":"proof","type":"bytes","internalType":"bytes"},{"name":"publicInputs","type":"bytes32[]","internalType":"bytes32[]"}],"outputs":[],"stateMutability":"nonpayable"},{"type":"function","name":"withdrawToken","inputs":[{"name":"bridgedToken","type":"address","internalType":"address"},{"name":"recipient","type":"address","internalType":"address"},{"name":"ringsDID","type":"bytes32","internalType":"bytes32"},{"name":"amount","type":"uint256","internalType":"uint256"},{"name":"nonce_","type":"uint256","internalType":"uint256"},{"name":"proof","type":"bytes","internalType":"bytes"},{"name":"publicInputs","type":"bytes32[]","internalType":"bytes32[]"}],"outputs":[],"stateMutability":"nonpayable"},{"type":"function","name":"withdrawalNonce","inputs":[],"outputs":[{"name":"","type":"uint256","internalType":"uint256"}],"stateMutability":"view"},{"type":"function","name":"withdrawals","inputs":[{"name":"","type":"uint256","internalType":"uint256"}],"outputs":[{"name":"recipient","type":"address","internalType":"address"},{"name":"ringsDID","type":"bytes32","internalType":"bytes32"},{"name":"amount","type":"uint256","internalType":"uint256"},{"name":"token","type":"address","internalType":"address"},{"name":"timestamp","type":"uint256","internalType":"uint256"},{"name":"nonce","type":"uint256","internalType":"uint256"}],"stateMutability":"view"},{"type":"event","name":"Deposited","inputs":[{"name":"nonce","type":"uint256","indexed":true,"internalType":"uint256"},{"name":"depositor","type":"address","indexed":true,"internalType":"address"},{"name":"ringsDID","type":"bytes32","indexed":true,"internalType":"bytes32"},{"name":"amount","type":"uint256","indexed":false,"internalType":"uint256"},{"name":"token","type":"address","indexed":false,"internalType":"address"},{"name":"timestamp","type":"uint256","indexed":false,"internalType":"uint256"}],"anonymous":false},{"type":"event","name":"EmergencyPaused","inputs":[{"name":"guardian","type":"address","indexed":true,"internalType":"address"}],"anonymous":false},{"type":"event","name":"Paused","inputs":[{"name":"account","type":"address","indexed":false,"internalType":"address"}],"anonymous":false},{"type":"event","name":"RateLimitUpdated","inputs":[{"name":"newDailyLimit","type":"uint256","indexed":false,"internalType":"uint256"},{"name":"newPerTxLimit","type":"uint256","indexed":false,"internalType":"uint256"},{"name":"updater","type":"address","indexed":false,"internalType":"address"}],"anonymous":false},{"type":"event","name":"RoleAdminChanged","inputs":[{"name":"role","type":"bytes32","indexed":true,"internalType":"bytes32"},{"name":"previousAdminRole","type":"bytes32","indexed":true,"internalType":"bytes32"},{"name":"newAdminRole","type":"bytes32","indexed":true,"internalType":"bytes32"}],"anonymous":false},{"type":"event","name":"RoleGranted","inputs":[{"name":"role","type":"bytes32","indexed":true,"internalType":"bytes32"},{"name":"account","type":"address","indexed":true,"internalType":"address"},{"name":"sender","type":"address","indexed":true,"internalType":"address"}],"anonymous":false},{"type":"event","name":"RoleRevoked","inputs":[{"name":"role","type":"bytes32","indexed":true,"internalType":"bytes32"},{"name":"account","type":"address","indexed":true,"internalType":"address"},{"name":"sender","type":"address","indexed":true,"internalType":"address"}],"anonymous":false},{"type":"event","name":"SyncCommitteeUpdated","inputs":[{"name":"newRoot","type":"bytes32","indexed":true,"internalType":"bytes32"},{"name":"slot","type":"uint64","indexed":true,"internalType":"uint64"},{"name":"updater","type":"address","indexed":false,"internalType":"address"}],"anonymous":false},{"type":"event","name":"Unpaused","inputs":[{"name":"account","type":"address","indexed":false,"internalType":"address"}],"anonymous":false},{"type":"event","name":"Withdrawn","inputs":[{"name":"nonce","type":"uint256","indexed":true,"internalType":"uint256"},{"name":"recipient","type":"address","indexed":true,"internalType":"address"},{"name":"ringsDID","type":"bytes32","indexed":true,"internalType":"bytes32"},{"name":"amount","type":"uint256","indexed":false,"internalType":"uint256"},{"name":"token","type":"address","indexed":false,"internalType":"address"},{"name":"timestamp","type":"uint256","indexed":false,"internalType":"uint256"}],"anonymous":false}],"bytecode":{"object":"0x60a060405234801562000010575f80fd5b5060405162002ac738038062002ac7833981016040819052620000339162000364565b6001805460ff191681556002556001600160a01b0385166200009c5760405162461bcd60e51b815260206004820152601760248201527f52696e67734272696467653a207a65726f2061646d696e00000000000000000060448201526064015b60405180910390fd5b6001600160a01b038416620000f45760405162461bcd60e51b815260206004820152601a60248201527f52696e67734272696467653a207a65726f20677561726469616e000000000000604482015260640162000093565b6001600160a01b0381166200014c5760405162461bcd60e51b815260206004820152601a60248201527f52696e67734272696467653a207a65726f207665726966696572000000000000604482015260640162000093565b5f83116200019d5760405162461bcd60e51b815260206004820152601d60248201527f52696e67734272696467653a207a65726f206461696c79206c696d6974000000604482015260640162000093565b5f8211620001ee5760405162461bcd60e51b815260206004820152601e60248201527f52696e67734272696467653a207a65726f207065722d7478206c696d69740000604482015260640162000093565b82821115620002505760405162461bcd60e51b815260206004820152602760248201527f52696e67734272696467653a207065722d7478206c696d69742065786365656460448201526673206461696c7960c81b606482015260840162000093565b6200025c5f86620002a9565b620002887f55435dd261a4b9b3364963f7738a7a662ad9c84396d64be3365284bb7f0a504185620002a9565b6005929092556006556001600160a01b0316608052505042600855620003be565b5f828152602081815260408083206001600160a01b038516845290915290205460ff1662000344575f828152602081815260408083206001600160a01b03851684529091529020805460ff19166001179055620003033390565b6001600160a01b0316816001600160a01b0316837f2f8788117e7eff1d82e926ec794901d17c78024a50270940304540a733656f0d60405160405180910390a45b5050565b80516001600160a01b03811681146200035f575f80fd5b919050565b5f805f805f60a0868803121562000379575f80fd5b620003848662000348565b9450620003946020870162000348565b93506040860151925060608601519150620003b26080870162000348565b90509295509295909350565b6080516126db620003ec5f395f81816102a8015281816109e001528181611360015261160601526126db5ff3fe6080604052600436106101e9575f3560e01c806384abac9511610108578063b343a0df1161009d578063de35f5cb1161006d578063de35f5cb1461075c578063df77294114610771578063e5ae17e914610786578063fbac7ee9146107a5578063ff564f8f146107c4575f80fd5b8063b343a0df146106e5578063c2b140fe146106fa578063d547741f1461070f578063dde4d9501461072e575f80fd5b8063a15f39e8116100d8578063a15f39e814610650578063a217fddf14610664578063b02c43d014610677578063b214faa5146106d2575f80fd5b806384abac95146105de5780638f0591d3146105fd57806391d148541461061c57806398c8877e1461063b575f80fd5b806351858e271161017e5780635dde88951161014e5780635dde8895146104d557806367eeba0c146105845780637014fd12146105995780637b259db4146105c9575f80fd5b806351858e27146103555780635328c2bf146103695780635c975abb146104255780635cc070761461043c575f80fd5b80632f2ff15d116101b95780632f2ff15d146102e257806336568abe146103035780633f4ba83a146103225780634608501a14610336575f80fd5b806301ffc9a7146101f4578063248a9ca31461022857806324ea54f4146102645780632b7ac3f314610297575f80fd5b366101f057005b5f80fd5b3480156101ff575f80fd5b5061021361020e366004612085565b6107fd565b60405190151581526020015b60405180910390f35b348015610233575f80fd5b506102566102423660046120ac565b5f9081526020819052604090206001015490565b60405190815260200161021f565b34801561026f575f80fd5b506102567f55435dd261a4b9b3364963f7738a7a662ad9c84396d64be3365284bb7f0a504181565b3480156102a2575f80fd5b506102ca7f000000000000000000000000000000000000000000000000000000000000000081565b6040516001600160a01b03909116815260200161021f565b3480156102ed575f80fd5b506103016102fc3660046120d7565b61080d565b005b34801561030e575f80fd5b5061030161031d3660046120d7565b610836565b34801561032d575f80fd5b506103016108b9565b348015610341575f80fd5b5061030161035036600461218b565b6108ce565b348015610360575f80fd5b50610301610cf4565b348015610374575f80fd5b506104186103833660046120ac565b6040805160c0810182525f80825260208201819052918101829052606081018290526080810182905260a0810191909152505f908152600c6020908152604091829020825160c08101845281546001600160a01b03908116825260018301549382019390935260028201549381019390935260038101549091166060830152600481015460808301526005015460a082015290565b60405161021f9190612223565b348015610430575f80fd5b5060015460ff16610213565b348015610447575f80fd5b506104976104563660046120ac565b600d6020525f90815260409020805460018201546002830154600384015460048501546005909501546001600160a01b039485169593949293919092169186565b604080516001600160a01b039788168152602081019690965285019390935293166060830152608082019290925260a081019190915260c00161021f565b3480156104e0575f80fd5b506104186104ef3660046120ac565b6040805160c0810182525f80825260208201819052918101829052606081018290526080810182905260a0810191909152505f908152600d6020908152604091829020825160c08101845281546001600160a01b03908116825260018301549382019390935260028201549381019390935260038101549091166060830152600481015460808301526005015460a082015290565b34801561058f575f80fd5b5061025660055481565b3480156105a4575f80fd5b506102136105b33660046120ac565b5f908152600c6020526040902060040154151590565b3480156105d4575f80fd5b50610256600a5481565b3480156105e9575f80fd5b506103016105f8366004612270565b610d53565b348015610608575f80fd5b506103016106173660046122a2565b610f27565b348015610627575f80fd5b506102136106363660046120d7565b61109d565b348015610646575f80fd5b5061025660075481565b34801561065b575f80fd5b506102566110c5565b34801561066f575f80fd5b506102565f81565b348015610682575f80fd5b506104976106913660046120ac565b600c6020525f90815260409020805460018201546002830154600384015460048501546005909501546001600160a01b039485169593949293919092169186565b6103016106e03660046120ac565b611109565b3480156106f0575f80fd5b5061025660085481565b348015610705575f80fd5b5061025660035481565b34801561071a575f80fd5b506103016107293660046120d7565b611270565b348015610739575f80fd5b506102136107483660046120ac565b600b6020525f908152604090205460ff1681565b348015610767575f80fd5b5061025660095481565b34801561077c575f80fd5b5061025660065481565b348015610791575f80fd5b506103016107a03660046122c2565b611294565b3480156107b0575f80fd5b506103016107bf36600461234e565b61149e565b3480156107cf575f80fd5b506004546107e49067ffffffffffffffff1681565b60405167ffffffffffffffff909116815260200161021f565b5f61080782611906565b92915050565b5f828152602081905260409020600101546108278161193a565b6108318383611944565b505050565b6001600160a01b03811633146108ab5760405162461bcd60e51b815260206004820152602f60248201527f416363657373436f6e74726f6c3a2063616e206f6e6c792072656e6f756e636560448201526e103937b632b9903337b91039b2b63360891b60648201526084015b60405180910390fd5b6108b582826119c7565b5050565b5f6108c38161193a565b6108cb611a2b565b50565b6108d6611a7d565b6108de611ac5565b6001600160a01b0388166109345760405162461bcd60e51b815260206004820152601b60248201527f52696e67734272696467653a207a65726f20726563697069656e74000000000060448201526064016108a2565b5f861161097e5760405162461bcd60e51b8152602060048201526018602482015277149a5b99dcd09c9a5919d94e881e995c9bc8185b5bdd5b9d60421b60448201526064016108a2565b8661099b5760405162461bcd60e51b81526004016108a2906123fa565b5f858152600b602052604090205460ff16156109c95760405162461bcd60e51b81526004016108a290612429565b604051632ef2df1d60e21b81526001600160a01b037f0000000000000000000000000000000000000000000000000000000000000000169063bbcb7c7490610a1b908790879087908790600401612472565b602060405180830381865afa158015610a36573d5f803e3d5ffd5b505050506040513d601f19601f82011682018060405250810190610a5a91906124d4565b610aa65760405162461bcd60e51b815260206004820152601a60248201527f52696e67734272696467653a20696e76616c69642070726f6f6600000000000060448201526064016108a2565b600654861115610ac85760405162461bcd60e51b81526004016108a2906124f3565b610ad0611b1c565b60055486600754610ae19190612548565b1115610b2f5760405162461bcd60e51b815260206004820181905260248201527f52696e67734272696467653a2065786365656473206461696c79206c696d697460448201526064016108a2565b5f858152600b60205260408120805460ff1916600117905560078054889290610b59908490612548565b9091555050600a54610b6c816001612548565b600a556040805160c0810182526001600160a01b038b811680835260208084018d81528486018d81525f60608701818152426080890190815260a089018b81528b8452600d909652898320985189549089166001600160a01b0319918216178a55945160018a01559251600289015551600388018054919097169316929092179094559251600485015551600590930192909255915189908381818185875af1925050503d805f8114610c3a576040519150601f19603f3d011682016040523d82523d5f602084013e610c3f565b606091505b5050905080610c905760405162461bcd60e51b815260206004820181905260248201527f52696e67734272696467653a20455448207472616e73666572206661696c656460448201526064016108a2565b604080518981525f6020820152428183015290518a916001600160a01b038d169185917f4aa5dedc273c6c49c9d2ef189d4026e1299c85b86dd13b532453b36265c9d612919081900360600190a45050610cea6001600255565b5050505050505050565b7f55435dd261a4b9b3364963f7738a7a662ad9c84396d64be3365284bb7f0a5041610d1e8161193a565b610d26611b3c565b60405133907fb8fad2fa0ed7a383e747c309ef2c4391d7b65592a48893e57ccc1fab70791456905f90a250565b610d5b611a7d565b610d63611ac5565b5f8211610dae5760405162461bcd60e51b8152602060048201526019602482015278149a5b99dcd09c9a5919d94e881e995c9bc819195c1bdcda5d603a1b60448201526064016108a2565b6001600160a01b038316610e045760405162461bcd60e51b815260206004820152601f60248201527f52696e67734272696467653a207a65726f20746f6b656e20616464726573730060448201526064016108a2565b80610e215760405162461bcd60e51b81526004016108a2906123fa565b610e366001600160a01b038416333085611b77565b600954610e44816001612548565b6009556040805160c0810182523380825260208083018681528385018881526001600160a01b038a811660608088018281524260808a0181815260a08b018d81525f8e8152600c8b528d90209b518c549088166001600160a01b0319918216178d55985160018d0155965160028c0155915160038b01805491909616971696909617909355915160048801559151600590960195909555855189815292830152938101939093528492909184917f835ef55867d5587b01b43e9bc6e0f90c433e86dd6d71adb78831be0692788f1e910160405180910390a4506108316001600255565b7f55435dd261a4b9b3364963f7738a7a662ad9c84396d64be3365284bb7f0a5041610f518161193a565b5f8311610fa05760405162461bcd60e51b815260206004820152601d60248201527f52696e67734272696467653a207a65726f206461696c79206c696d697400000060448201526064016108a2565b5f8211610fef5760405162461bcd60e51b815260206004820152601e60248201527f52696e67734272696467653a207a65726f207065722d7478206c696d6974000060448201526064016108a2565b8282111561104f5760405162461bcd60e51b815260206004820152602760248201527f52696e67734272696467653a207065722d7478206c696d69742065786365656460448201526673206461696c7960c81b60648201526084016108a2565b600583905560068290556040805184815260208101849052338183015290517f14897ee1694e68f00cc59496cccc00ddac4968f8d425a18501040753813aeddf9181900360600190a1505050565b5f918252602082815260408084206001600160a01b0393909316845291905290205460ff1690565b5f600854620151806110d79190612548565b42106110e4575060055490565b600554600754106110f457505f90565b600754600554611104919061255b565b905090565b611111611a7d565b611119611ac5565b5f34116111645760405162461bcd60e51b8152602060048201526019602482015278149a5b99dcd09c9a5919d94e881e995c9bc819195c1bdcda5d603a1b60448201526064016108a2565b806111815760405162461bcd60e51b81526004016108a2906123fa565b60095461118f816001612548565b6009556040805160c081018252338082526020808301868152348486018181525f60608088018281524260808a0181815260a08b018d81528d8652600c8a528c86209b518c546001600160a01b039182166001600160a01b0319918216178e55995160018e0155965160028d0155925160038c01805491909716981697909717909455945160048901559351600590970196909655865191825292810194909452938301528492909184917f835ef55867d5587b01b43e9bc6e0f90c433e86dd6d71adb78831be0692788f1e910160405180910390a4506108cb6001600255565b5f8281526020819052604090206001015461128a8161193a565b61083183836119c7565b61129c611a7d565b6112a4611ac5565b856112ea5760405162461bcd60e51b8152602060048201526016602482015275149a5b99dcd09c9a5919d94e881e995c9bc81c9bdbdd60521b60448201526064016108a2565b60045467ffffffffffffffff908116908616116113495760405162461bcd60e51b815260206004820152601f60248201527f52696e67734272696467653a20736c6f74206e6f7420616476616e63696e670060448201526064016108a2565b604051632ef2df1d60e21b81526001600160a01b037f0000000000000000000000000000000000000000000000000000000000000000169063bbcb7c749061139b908790879087908790600401612472565b602060405180830381865afa1580156113b6573d5f803e3d5ffd5b505050506040513d601f19601f820116820180604052508101906113da91906124d4565b6114325760405162461bcd60e51b8152602060048201526024808201527f52696e67734272696467653a20696e76616c696420636f6d6d697474656520706044820152633937b7b360e11b60648201526084016108a2565b60038690556004805467ffffffffffffffff191667ffffffffffffffff871690811790915560405133815287907f98d815a4c4b2dfbdcaafa2f54ff10d4dfefc04b493446d9b56499d43e5bcbc119060200160405180910390a36114966001600255565b505050505050565b6114a6611a7d565b6114ae611ac5565b6001600160a01b0389166115045760405162461bcd60e51b815260206004820152601760248201527f52696e67734272696467653a207a65726f20746f6b656e00000000000000000060448201526064016108a2565b6001600160a01b03881661155a5760405162461bcd60e51b815260206004820152601b60248201527f52696e67734272696467653a207a65726f20726563697069656e74000000000060448201526064016108a2565b5f86116115a45760405162461bcd60e51b8152602060048201526018602482015277149a5b99dcd09c9a5919d94e881e995c9bc8185b5bdd5b9d60421b60448201526064016108a2565b866115c15760405162461bcd60e51b81526004016108a2906123fa565b5f858152600b602052604090205460ff16156115ef5760405162461bcd60e51b81526004016108a290612429565b604051632ef2df1d60e21b81526001600160a01b037f0000000000000000000000000000000000000000000000000000000000000000169063bbcb7c7490611641908790879087908790600401612472565b602060405180830381865afa15801561165c573d5f803e3d5ffd5b505050506040513d601f19601f8201168201806040525081019061168091906124d4565b6116cc5760405162461bcd60e51b815260206004820152601a60248201527f52696e67734272696467653a20696e76616c69642070726f6f6600000000000060448201526064016108a2565b6006548611156116ee5760405162461bcd60e51b81526004016108a2906124f3565b6116f6611b1c565b600554866007546117079190612548565b11156117555760405162461bcd60e51b815260206004820181905260248201527f52696e67734272696467653a2065786365656473206461696c79206c696d697460448201526064016108a2565b5f858152600b60205260408120805460ff191660011790556007805488929061177f908490612548565b9091555050600a54611792816001612548565b600a556040805160c0810182526001600160a01b03808c16825260208083018c81528385018c81528f841660608601818152426080880190815260a088018a81525f8b8152600d90975295899020975188549088166001600160a01b0319918216178955945160018901559251600288015551600387018054919096169316929092179093559151600480850191909155905160059093019290925591516340c10f1960e01b81526340c10f1991611862918d918c91016001600160a01b03929092168252602082015260400190565b5f604051808303815f87803b158015611879575f80fd5b505af115801561188b573d5f803e3d5ffd5b5050505087896001600160a01b0316827f4aa5dedc273c6c49c9d2ef189d4026e1299c85b86dd13b532453b36265c9d6128a8e426040516118e8939291909283526001600160a01b03919091166020830152604082015260600190565b60405180910390a4506118fb6001600255565b505050505050505050565b5f6001600160e01b03198216637965db0b60e01b148061080757506301ffc9a760e01b6001600160e01b0319831614610807565b6108cb8133611bd7565b61194e828261109d565b6108b5575f828152602081815260408083206001600160a01b03851684529091529020805460ff191660011790556119833390565b6001600160a01b0316816001600160a01b0316837f2f8788117e7eff1d82e926ec794901d17c78024a50270940304540a733656f0d60405160405180910390a45050565b6119d1828261109d565b156108b5575f828152602081815260408083206001600160a01b0385168085529252808320805460ff1916905551339285917ff6391f5c32d9c69d2a47ea670b442974b53935d1edc7fd64eb21e047a839171b9190a45050565b611a33611c30565b6001805460ff191690557f5db9ee0a495bf2e6ff9c91a7834c1ba4fdd244a5e8aa4e537bd38aeae4b073aa335b6040516001600160a01b03909116815260200160405180910390a1565b60015460ff1615611ac35760405162461bcd60e51b815260206004820152601060248201526f14185d5cd8589b194e881c185d5cd95960821b60448201526064016108a2565b565b6002805403611b165760405162461bcd60e51b815260206004820152601f60248201527f5265656e7472616e637947756172643a207265656e7472616e742063616c6c0060448201526064016108a2565b60028055565b600854611b2c9062015180612548565b4210611ac3575f60075542600855565b611b44611a7d565b6001805460ff1916811790557f62e78cea01bee320cd4e420270b5ea74000d11b0c9f74754ebdbfc544b05a25833611a60565b604080516001600160a01b0385811660248301528416604482015260648082018490528251808303909101815260849091019091526020810180516001600160e01b03166323b872dd60e01b179052611bd1908590611c79565b50505050565b611be1828261109d565b6108b557611bee81611d4c565b611bf9836020611d5e565b604051602001611c0a929190612590565b60408051601f198184030181529082905262461bcd60e51b82526108a291600401612604565b60015460ff16611ac35760405162461bcd60e51b815260206004820152601460248201527314185d5cd8589b194e881b9bdd081c185d5cd95960621b60448201526064016108a2565b5f611ccd826040518060400160405280602081526020017f5361666545524332303a206c6f772d6c6576656c2063616c6c206661696c6564815250856001600160a01b0316611efb9092919063ffffffff16565b905080515f1480611ced575080806020019051810190611ced91906124d4565b6108315760405162461bcd60e51b815260206004820152602a60248201527f5361666545524332303a204552433230206f7065726174696f6e20646964206e6044820152691bdd081cdd58d8d9595960b21b60648201526084016108a2565b60606108076001600160a01b03831660145b60605f611d6c836002612636565b611d77906002612548565b67ffffffffffffffff811115611d8f57611d8f61264d565b6040519080825280601f01601f191660200182016040528015611db9576020820181803683370190505b509050600360fc1b815f81518110611dd357611dd3612661565b60200101906001600160f81b03191690815f1a905350600f60fb1b81600181518110611e0157611e01612661565b60200101906001600160f81b03191690815f1a9053505f611e23846002612636565b611e2e906001612548565b90505b6001811115611ea5576f181899199a1a9b1b9c1cb0b131b232b360811b85600f1660108110611e6257611e62612661565b1a60f81b828281518110611e7857611e78612661565b60200101906001600160f81b03191690815f1a90535060049490941c93611e9e81612675565b9050611e31565b508315611ef45760405162461bcd60e51b815260206004820181905260248201527f537472696e67733a20686578206c656e67746820696e73756666696369656e7460448201526064016108a2565b9392505050565b6060611f0984845f85611f11565b949350505050565b606082471015611f725760405162461bcd60e51b815260206004820152602660248201527f416464726573733a20696e73756666696369656e742062616c616e636520666f6044820152651c8818d85b1b60d21b60648201526084016108a2565b5f80866001600160a01b03168587604051611f8d919061268a565b5f6040518083038185875af1925050503d805f8114611fc7576040519150601f19603f3d011682016040523d82523d5f602084013e611fcc565b606091505b5091509150611fdd87838387611fe8565b979650505050505050565b606083156120565782515f0361204f576001600160a01b0385163b61204f5760405162461bcd60e51b815260206004820152601d60248201527f416464726573733a2063616c6c20746f206e6f6e2d636f6e747261637400000060448201526064016108a2565b5081611f09565b611f09838381511561206b5781518083602001fd5b8060405162461bcd60e51b81526004016108a29190612604565b5f60208284031215612095575f80fd5b81356001600160e01b031981168114611ef4575f80fd5b5f602082840312156120bc575f80fd5b5035919050565b6001600160a01b03811681146108cb575f80fd5b5f80604083850312156120e8575f80fd5b8235915060208301356120fa816120c3565b809150509250929050565b5f8083601f840112612115575f80fd5b50813567ffffffffffffffff81111561212c575f80fd5b602083019150836020828501011115612143575f80fd5b9250929050565b5f8083601f84011261215a575f80fd5b50813567ffffffffffffffff811115612171575f80fd5b6020830191508360208260051b8501011115612143575f80fd5b5f805f805f805f8060c0898b0312156121a2575f80fd5b88356121ad816120c3565b9750602089013596506040890135955060608901359450608089013567ffffffffffffffff808211156121de575f80fd5b6121ea8c838d01612105565b909650945060a08b0135915080821115612202575f80fd5b5061220f8b828c0161214a565b999c989b5096995094979396929594505050565b81516001600160a01b0390811682526020808401519083015260408084015190830152606080840151909116908201526080808301519082015260a0808301519082015260c08101610807565b5f805f60608486031215612282575f80fd5b833561228d816120c3565b95602085013595506040909401359392505050565b5f80604083850312156122b3575f80fd5b50508035926020909101359150565b5f805f805f80608087890312156122d7575f80fd5b86359550602087013567ffffffffffffffff80821682146122f6575f80fd5b9095506040880135908082111561230b575f80fd5b6123178a838b01612105565b9096509450606089013591508082111561232f575f80fd5b5061233c89828a0161214a565b979a9699509497509295939492505050565b5f805f805f805f805f60e08a8c031215612366575f80fd5b8935612371816120c3565b985060208a0135612381816120c3565b975060408a0135965060608a0135955060808a0135945060a08a013567ffffffffffffffff808211156123b2575f80fd5b6123be8d838e01612105565b909650945060c08c01359150808211156123d6575f80fd5b506123e38c828d0161214a565b915080935050809150509295985092959850929598565b602080825260159082015274149a5b99dcd09c9a5919d94e881e995c9bc8111251605a1b604082015260600190565b60208082526029908201527f52696e67734272696467653a207769746864726177616c20616c7265616479206040820152681c1c9bd8d95cdcd95960ba1b606082015260800190565b60408152836040820152838560608301375f60608583018101829052601f19601f8701168301838103820160208501529081018490526001600160fb1b038411156124bb575f80fd5b8360051b80866080840137016080019695505050505050565b5f602082840312156124e4575f80fd5b81518015158114611ef4575f80fd5b60208082526021908201527f52696e67734272696467653a2065786365656473207065722d7478206c696d696040820152601d60fa1b606082015260800190565b634e487b7160e01b5f52601160045260245ffd5b8082018082111561080757610807612534565b8181038181111561080757610807612534565b5f5b83811015612588578181015183820152602001612570565b50505f910152565b7f416363657373436f6e74726f6c3a206163636f756e742000000000000000000081525f83516125c781601785016020880161256e565b7001034b99036b4b9b9b4b733903937b6329607d1b60179184019182015283516125f881602884016020880161256e565b01602801949350505050565b602081525f825180602084015261262281604085016020870161256e565b601f01601f19169190910160400192915050565b808202811582820484141761080757610807612534565b634e487b7160e01b5f52604160045260245ffd5b634e487b7160e01b5f52603260045260245ffd5b5f8161268357612683612534565b505f190190565b5f825161269b81846020870161256e565b919091019291505056fea26469706673582212201c50f4ff216780c6a3aebe8402b50dca18882da9a2f26bf18fb5357c0d2d04ef64736f6c63430008140033","linkReferences":{}},"methodIdentifiers":{"DEFAULT_ADMIN_ROLE()":"a217fddf","GUARDIAN_ROLE()":"24ea54f4","dailyLimit()":"67eeba0c","dailyVolume()":"98c8877e","deposit(bytes32)":"b214faa5","depositNonce()":"de35f5cb","depositToken(address,uint256,bytes32)":"84abac95","deposits(uint256)":"b02c43d0","emergencyPause()":"51858e27","getDepositInfo(uint256)":"5328c2bf","getRemainingDailyLimit()":"a15f39e8","getRoleAdmin(bytes32)":"248a9ca3","getWithdrawalInfo(uint256)":"5dde8895","grantRole(bytes32,address)":"2f2ff15d","hasRole(bytes32,address)":"91d14854","isDepositProcessed(uint256)":"7014fd12","lastResetTimestamp()":"b343a0df","latestVerifiedSlot()":"ff564f8f","paused()":"5c975abb","perTxLimit()":"df772941","processedWithdrawals(uint256)":"dde4d950","renounceRole(bytes32,address)":"36568abe","revokeRole(bytes32,address)":"d547741f","supportsInterface(bytes4)":"01ffc9a7","syncCommitteeRoot()":"c2b140fe","unpause()":"3f4ba83a","updateRateLimits(uint256,uint256)":"8f0591d3","updateSyncCommittee(bytes32,uint64,bytes,bytes32[])":"e5ae17e9","verifier()":"2b7ac3f3","withdraw(address,bytes32,uint256,uint256,bytes,bytes32[])":"4608501a","withdrawToken(address,address,bytes32,uint256,uint256,bytes,bytes32[])":"fbac7ee9","withdrawalNonce()":"7b259db4","withdrawals(uint256)":"5cc07076"},"id":4}